:020000040800F2
:10000000681C00205D280008A9130008AB13000835
:10001000AF130008B3130008B71300080000000076
:10002000000000000000000000000000BB130008FA
:10003000BD13000800000000BF130008C113000832
:100040007728000877280008772800087728000814
:100050007728000877280008772800087728000804
:10006000772800087728000877280008332300083D
:1000700077280008772800087728000877280008E4
:1000800077280008772800087728000877280008D4
:1000900077280008772800087728000877280008C4
:1000A00077280008772800087728000877280008B4
:1000B000192100088D150008772800087728000806
:1000C0007728000877280008772800087728000894
:1000D00077280008D3270008772800087728000829
:1000E0007728000877280008772800087728000874
:1000F0007728000877280008772800087728000864
:10010000772800087728000887210008772800084A
:100110007728000877280008772800087728000843
:100120007728000877280008772800087728000833
:1001300000F002F800F05EF80AA090E8000C82449B
:100140008344AAF10107DA4501D100F053F8AFF278
:10015000090EBAE80F0013F0010F18BFFB1A43F0A5
:1001600001031847645000008450000010F8013B60
:100170000A4413F0030408BF10F8014B1D1108BF17
:1001800010F8015B641E05D010F8016B641E01F8C5
:10019000016BF9D1002D15D010F8014B03F00C03C1
:1001A0000C2BA1EB04040ABF10F8013BA4EB831451
:1001B000A4EB032405F1010314F8016B5B1E01F8A5
:1001C000016BF9D5914238BF10F8013BD1D370478C
:1001D0000023002400250026103A28BF78C1FBD850
:1001E000520728BF30C148BF0B6070471FB51FBD05
:1001F00010B510BD04F0A9FB1146FFF7F7FF00F0A2
:10020000BEFE04F0C7FB03B4FFF7F2FF03BC02F02D
:1002100085FA000010B5F7480168006802F016F989
:100220004FF47A7002F041FA10BD10B5002001F0D1
:10023000F1FEF1480168F148006800F57A708142EA
:1002400044D9EF480068ED49096888423ED9ED4835
:100250000068EA490968884238D9EB480068E749EC
:100260000968884232D9E9480068B0F5167F2DD276
:10027000E7480068B0F5167F28D2E6480068DF49F5
:100280000968884222D2E4480068DC49096888424B
:100290001CD2E2480078012818D1E1480068401CCF
:1002A000DF4908600846006803285BDD4FF4FA70F8
:1002B00002F085F840F2A46002F0F7F9FFF7AAFF18
:1002C0000020D8490860D64908604BE0CA48006859
:1002D00040F2A461884203D8C9480068884211D915
:1002E000D148006840F2A46188420BD9C94800682F
:1002F000884207D94FF4C87002F061F80120CB4959
:1003000008702FE0BC48006840F2A461884203D81E
:10031000BB480068884211D9C548006840F2A46112
:1003200088420BD9BC480068884207D94FF4C8708E
:1003300002F045F80220BD49087013E0BD4840892D
:1003400040F6B831884203DCBA488089884205DD2E
:100350004FF4AF71084602F079F803E04FF4C8702B
:1003600002F0AEF8B1480078012803D0AF48007819
:10037000022805D1B0480068401CAF49086002E07F
:100380000020AD490860AC48006864285CD9A748E3
:10039000007802282AD14FF42F71084602F056F84F
:1003A000642002F082F903E04FF4C87002F088F88C
:1003B000A0484089B0F5FA7F04DD9E488089B0F5F9
:1003C000FA7FF1DC4FF42F7001F0F9FF4FF47A70EF
:1003D00002F06BF94FF42F7002F0A7F84FF496700B
:1003E00002F063F90020944908602DE08F480078FE
:1003F000012829D14FF42F71084602F027F8642014
:1004000002F053F903E04FF4C87002F08EF8894807
:100410004089B0F5FA7F04DD86488089B0F5FA7F1F
:10042000F1DC4FF42F7001F0CAFF4FF47A7002F044
:100430003CF94FF42F7002F043F84FF4967002F03D
:1004400034F900207C49086010BD10B54FF47A7073
:100450006A490860774840890968884205D8754824
:10046000808966490968884263D98021734801F010
:1004700085FD012805D00421704801F07FFD012889
:1004800023D16F480068B8B14FF4FA71084601F003
:10049000DDFFC82002F009F940F24C4002F010F8EC
:1004A0004FF4967002F001F94FF4FA7001F087FFF3
:1004B000C82002F0FAF835E04FF4FA71084601F06E
:1004C000C5FF01205F4908702CE05E4800780128D4
:1004D00013D15B48006880B95648808940F68C216A
:1004E000884203DC53484089884203DD0020554997
:1004F000087017E001F098FF14E053480068642882
:1005000002DD4F48006848B15048006801F022FF02
:100510004D480068401C4C49086003E04FF4966069
:1005200001F018FF00204A490870012001F072FD17
:10053000CEE08021414801F021FD012805D00421B1
:100540003E4801F01BFD01280DD14FF416710846FD
:1005500001F07CFF01203E49087000203D49086001
:1005600038490870B4E03348008924490968B1EB80
:10057000400F11D32F48C0882049096888420BD802
:100580002C4880881D490968884205D82948008878
:100590001A49096888420AD940F24C4001F0C5FF67
:1005A00000202D490860012001F034FD90E0214831
:1005B000C08912490968884211D81E48008A0F492B
:1005C000096888420BD81B48408A0C490968884250
:1005D00005D81848C08A0949096888423ED940F2BE
:1005E0004C4001F06DFF01201B49086001F012FD35
:1005F0006EE00000680000200000002040000020A5
:10060000180000202C0000201400002038000020DA
:100610003C000020240000200C000020540000209A
:10062000D0000020A0000020200000205800002062
:100630000800002020150020600000200014014068
:10064000E400002056000020E0000020AC00002064
:1006500057000020B00000205C0000200020FD4971
:100660000870FD48007801281FD14FF448710846F2
:1006700001F0ECFE642002F018F8F8480068012848
:1006800003D0F7480068012804D140F24C4001F043
:1006900017FF03E040F24C4001F047FFC82002F092
:1006A00004F80020EC4908700FE0EE4800780128BB
:1006B00004D14FF4C87001F082FE06E0EA480068F9
:1006C00001F07DFE0020E9490860002001F0A2FC55
:1006D00040F21450E649086010BD0020E54908705A
:1006E000E5490870E5490870E5490870E549087072
:1006F000E5490870E5490870E5490870E548006873
:10070000DB490968884205D8E3480068D849096888
:10071000884202D90120D7490870E0480068D449CE
:100720000968884205D8DE480068D14909688842CE
:1007300002D90120D0490870DA480068CC4909681C
:10074000884205D8D8480068C9490968884202D952
:100750000120CA490870D5480068C549096888421F
:1007600005D8D3480068C2490968884202D90120E7
:10077000C3490870BF480078012812D1C0480078EA
:1007800001280BD0C6480068B9490968884205D8D5
:10079000C5480068B6490968884202D90120BB49AA
:1007A0000870B748007801281ED1B24800780128A7
:1007B00017D0BB480068AE490968884211D8B748CD
:1007C0000068AB49096888420BD8B7480068A84957
:1007D0000968884205D8B3480068A5490968884275
:1007E00002D90120AA490870A3480078012812D133
:1007F000A248007801280BD0A74800689C490968E6
:10080000884205D8AA48006899490968884202D9EF
:1008100001209C49087099480078012812D1964817
:10082000007801280BD09B480068914909688842EC
:1008300005D89E4800688E490968884202D901207F
:10084000914908709148007801280BD090480078B1
:10085000012807D08B480078012803D08A48007807
:10086000012803D101209349087002E0002091493A
:10087000087070470021874A11608F4A1160874ACB
:100880001160874A11608D4A1160884A1160824A5E
:1008900011608B4A1160834A1160834A1160894A52
:1008A0001160834A1160884A1160884A1160884A41
:1008B00011608849098989007F4A1160002069E038
:1008C00084494989734A126802EB6101714A1160D7
:1008D0008049C988714A126802EB61016F4A116050
:1008E0007C4989886E4A126802EB61016C4A11608A
:1008F00078494988714A126802EB61016F4A1160B8
:1009000074490988694A126802EB6101674A1160FB
:1009100070498989604A126802EB61015E4A116080
:100920006C49C989664A126802EB6101644A116028
:100930006849098A5B4A126802EB6101594A1160F1
:100940006449498A584A126802EB6101564A1160AB
:100950006049898A5B4A126802EB6101594A116059
:100960005C49C98A524A126802EB6101504A11601F
:100970005849098B564A126802EB6101544A1160CA
:100980005449498B514A126802EB61014F4A116088
:10099000411CC8B2022893DB704738B5FFF76AFFE5
:1009A00040214D4801F0EAFA2E49087039480068A4
:1009B000B0F5FA7F09D90C200423009035480021B6
:1009C0000268084600F03EFF07E00C2004230022E6
:1009D00011460090104600F035FF37480068B0F52A
:1009E000FA7F09D90C2004230090334802210268C1
:1009F000002000F027FF07E00C2004230022022142
:100A00000090104600F01EFF24480068B0F5FA7F01
:100A100009D90C20042300902048194602680020C0
:100A200000F010FF07E00C2004230022194600907C
:100A3000104600F007FF1A480068B0F5FA7F4DD95C
:100A40000C2004230090164806210268002000F0C4
:100A5000F9FE4BE056000020570000205C0000200B
:100A6000E400002048000020A8000020E000002052
:100A7000400000204C0000204D0000204E000020CF
:100A80004F000020500000205100002052000020A4
:100A90005300002000000020180000200800002063
:100AA0000C00002020000020240000201400002062
:100AB0002C00002054000020040000201000002022
:100AC0001C000020280000203400002038000020F6
:100AD0003C00002020150020001401400C200423BD
:100AE000002206210090104600F0ACFE0C200423EA
:100AF0000090FD48027802211A2000F0A3FEFB4876
:100B00000068B0F5FA7F09D90C2004230090F7485B
:100B1000194602681A2000F095FE07E00C20042315
:100B20000022194600901A2000F08CFEF048006860
:100B3000B0F5FA7F09D90C2004230090EC4800217D
:100B400002684E2000F07EFE07E00C200423002205
:100B5000114600904E2000F075FEE6480068B0F5A2
:100B6000FA7F09D90C2004230090E2480221026890
:100B70004E2000F067FE07E00C2004230022022133
:100B800000904E2000F05EFEDB480068B0F5FA7F72
:100B900009D90C2004230090D748194602684E203A
:100BA00000F050FE07E00C200423002219460090BC
:100BB0004E2000F047FED1480068B0F5FA7F09D911
:100BC0000C2004230090CD48062102684E2000F03E
:100BD00039FE07E00C2004230022062100904E205D
:100BE00000F030FEC6480068B0F5FA7F09D90C2045
:100BF00004230090C24819460268342000F022FE07
:100C000007E00C200423002219460090342000F055
:100C100019FEBC480068B0F5FA7F09D90C200423FE
:100C20000090B848062102681A2000F00BFE07E089
:100C30000C2004230022062100901A2000F002FE5E
:100C4000B1480068B0F5FA7F09D90C200423009060
:100C5000AD4806210268342000F0F4FD07E00C20C6
:100C60000423002206210090342000F0EBFD042133
:100C7000A64801F083F904460520012322460421F9
:100C80000090682000F0DEFD8021A04801F076F998
:100C9000044605200123224606210090682000F02A
:100CA000D1FD38BD08B501220021084600F07EFFC5
:100CB00001220221002000F0B0FF012204210020C7
:100CC00000F0E2FF0C20042300909148002102680C
:100CD0004B2000F0B7FD0C20042300908D4802212A
:100CE00002684B2000F0AEFD0C20042300908A48DF
:100CF000194602684B2000F0A5FD8848006820B125
:100D0000012808D0022812D10BE0002206213C2045
:100D100000F04CFF0BE0002206213C2000F07DFF9C
:100D200005E0002206213C2000F0AEFF00BF00BF1E
:100D300008BD2DE9F0410024002500260027A0462B
:100D40004021774801F026F904464FF400516F48DE
:100D500001F020F905464FF480516C4801F01AF972
:100D600006464FF48041694801F014F907464FF4F4
:100D70000041664801F00EF98046012C02D10120A5
:100D800068490870012D02D1022066490870012EC1
:100D900002D1032063490870012F02D10420614968
:100DA0000870B8F1010F02D105205E4908705D4856
:100DB0000078BDE8F08110B5FFF7BBFF06281CD214
:100DC000DFE800F01B8048321C0300205549087002
:100DD000962001F06AFC54480078012803D10020D5
:100DE0005149087005E05048007810B901204E497B
:100DF0000870962001F059FCBFE0BEE00020494990
:100E00000870782001F051FC44480068401C4349B8
:100E10000860782001F049FC40480068022802DDA3
:100E200000203E490860A8E000203E490870782074
:100E300001F03BFC39480068401E384908607820C2
:100E400001F033FC35480068002802DA02203349FB
:100E5000086092E03148006870B90020314908709C
:100E6000782001F022FC2A480068323028490860C6
:100E7000782001F01AFC24E02848006801280ED1EF
:100E8000002028490870782001F00FFC21480068F4
:100E9000323020490860782001F007FC11E01F483B
:100EA000006802280DD100201E490870782001F04A
:100EB000FCFB19480068323017490860782001F0BF
:100EC000F4FB5AE01548006880BB00201549087003
:100ED000782001F0EAFB0E48006832380C490860BF
:100EE000782001F0E2FB47E04800002014000020D9
:100EF000180000201C0000202000002024000020FA
:100F00002C000020380000203C000020001401408C
:100F1000A8000020AC00002068000020CC000020C9
:100F200000100140490000204B000020FFE79948D5
:100F3000006801280ED1002097490870782001F040
:100F4000B4FB96480068323894490860782001F074
:100F5000ACFB11E08F48006802280DD100208E49BB
:100F60000870782001F0A1FB8D48006832388C4968
:100F70000860782001F099FB00BF00BF10BD01F0B0
:100F800057FB4FF47A7001F090FB4FF47A7001F048
:100F90008CFB01F0BDFB01F017F800F02DFD0F23D5
:100FA000804A8149814801F099F900F0A5FE0321AA
:100FB00040F2077000F006FA8F2140F6C31001F0EE
:100FC00053F800F089FF00F0DDFB03E0FFF7F3FECC
:100FD000FFF768FE764800780028F7D000F0D2FBD3
:100FE00004E0744A0021084600F06EFC6D488088D9
:100FF000B0F5FA6FF5DB00F0C5FB694801680068E1
:1010000001F024FA4FF47A7001F04FFB40F24C40AB
:1010100001F08BFA4FF4967001F047FB11E0FFF7F7
:10102000BCFCFFF75AFB6448007810B163480068C5
:1010300010B1FFF70AFA01E0FFF7F7F80020604966
:101040000870ECE770B504464FF47A7094FBF0F545
:1010500004E04FF47A7001F028FB6D1E002DF8DCDF
:101060004FF47A7094FBF0F100FB114086B23046E9
:1010700001F01BFB70BD10B50446092C15D2DFE84A
:1010800004F0850515253545556575004FF400615B
:101090004C4801F012FD4FF480614A4801F00DFD0B
:1010A0004FF40071474801F008FD6FE04FF4006114
:1010B000444801F000FD4FF48061424801F0FDFC1E
:1010C0004FF400713F4801F0F8FC5FE04FF400611D
:1010D0003C4801F0F2FC4FF480613A4801F0EBFC2F
:1010E0004FF40071374801F0E8FC4FE04FF4006125
:1010F000344801F0E0FC4FF48061324801F0DBFC41
:101100004FF400712F4801F0D8FC3FE04FF400612C
:101110002C4801F0D2FC4FF480612A4801F0CDFC4C
:101120004FF40071274801F0C6FC2FE04FF4006136
:10113000244801F0C0FC4FF48061224801F0BDFC5E
:101140004FF400711F4801F0B6FC1FE04FF400613E
:101150001C4801F0B2FC4FF480611A4801F0ABFC6E
:101160004FF40071174801F0A6FC0FE04FF4006146
:10117000144801F0A0FC4FF48061124801F09BFC80
:101180004FF400710F4801F096FC00BF00BF002033
:1011900010BD0000CC00002049000020AC00002061
:1011A00068000020201500204C2401400800024067
:1011B0004B0000208A00002054000020E4000020A2
:1011C00058000020001401400CB500200190009050
:1011D0006C48006840F480306A49086000BF694884
:1011E000006800F4003000900198401C01900098C5
:1011F00018B90198B0F5A06FF1D16248006800F409
:10120000003010B10120009001E000200090009813
:10121000012843D15C48006840F010005A4908603A
:101220000846006820F0030008600846006840F0A7
:1012300002000860534840685249486008464068C8
:1012400048600846406840F480604860084640684E
:1012500020F47C1048600846406840F4E81048607C
:101260000846006840F08070086000BF454800688C
:1012700000F000700028F9D04248406820F00300D8
:10128000404948600846406840F00200486000BF9E
:101290003C48406800F00C000828F9D10CBD10B59E
:1012A000FFF792FF10BD10B53648006840F001000E
:1012B000344908600846406834490840314948606C
:1012C00008460068324908402E4908600846006810
:1012D00020F4802008600846406820F4FE00486042
:1012E0004FF41F008860FFF7DAFF4FF000602949D4
:1012F000086010BD10B5002100200022214B5B6862
:1013000003F00C0121B1042906D0082928D107E0F7
:10131000214B224C236027E01F4B204C236023E00D
:10132000184B5B6803F47010164B5B6803F4803253
:10133000022303EB904022B9194B4343174C23601F
:101340000DE0104B5B6803F4003323B1144B4343AF
:10135000124C236003E0104B4343104C236003E026
:101360000D4B0E4C236000BF00BF064B5B68C3F300
:1013700003130C4CE15C094B1B68CB40074C23600A
:1013800010BD000000100240002002400000FFF8E5
:10139000FFFFF6FE08ED00E000127A0000010020D9
:1013A00000093D0004010020704700BFFEE700BFB8
:1013B000FEE700BFFEE700BFFEE7704770477047DB
:1013C0007047000030B589B005460C460121C802BF
:1013D00001F080FD0121042001F07CFD4FF47060DC
:1013E000ADF8200018208DF8230003208DF822008E
:1013F00008A9A44801F0B2FAADF81850ADF81440AD
:101400000020ADF81A00ADF8160005A99E4802F0BC
:101410000BF97020ADF804000120ADF806000020A3
:10142000ADF80A00ADF80C0001A9974802F039F9AF
:101430007020ADF804000120ADF806000020ADF8E2
:101440000A00ADF80C0001A98F4802F06CF9702079
:10145000ADF804000120ADF806000020ADF80A0048
:10146000ADF80C0001A9884802F0AAF97020ADF887
:1014700004000120ADF806000020ADF80A00ADF828
:101480000C0001A9804802F0E6F901217E4802F033
:1014900033FC08217C4802F053FD08217A4802F011
:1014A00058FD0821784802F061FD0821764802F0D5
:1014B00066FD0121744802F013FD0121724802F01B
:1014C0000FFC09B030BD30B589B005460C4601218E
:1014D000022001F00CFD0121082001F0FBFC01219C
:1014E000084601F0F7FC01F02FFA0121674801F0EE
:1014F00006FB3020ADF8200004208DF823000320E7
:101500008DF8220008A9624801F028FA614801F02C
:10151000B7FF05A802F0B4FBADF81850ADF81440C1
:101520000020ADF81A00ADF8160005A9594802F0E0
:101530007BF80A231A460321564802F084FC02A8CD
:1015400002F0B1FB0620ADF8100002A9514802F0EC
:10155000FEFA1D208DF8040002208DF80500002001
:101560008DF8060001208DF8070001A801F01FFF8B
:101570000121484802F07AFE0020464924310880C3
:101580000121444802F0ACFB09B030BD10B5022186
:10159000404802F06EFE20B13F480068401C3E49C2
:1015A00008603D48006840F25231884205D1002071
:1015B00001F013F80020384908600321354802F093
:1015C00069FE10BD30B589B005460C4601210420E6
:1015D00001F08DFC0121082001F07CFC4FF44070EB
:1015E000ADF8200018208DF8230003208DF822008C
:1015F00008A9274801F0B2F9284801F041FFADF8E9
:101600001850ADF814400020ADF81A00ADF81600DF
:1016100005A9224802F008F87020ADF80400012066
:10162000ADF806000020ADF80A000220ADF80C006D
:1016300001A91A4802F0C4F87020ADF80400012096
:10164000ADF806000020ADF80A000220ADF80C004D
:1016500001A9124802F0FFF80121104802F04CFBEA
:1016600008210E4802F082FC08210C4802F087FC99
:1016700001210A4802F034FC0121084802F030FB45
:1016800009B030BD00080140002C014000081A00DC
:10169000000C01400004004014010020000800403C
:1016A00070B504460E462EB14FF48061FE4801F03D
:1016B00002FA04E04FF48061FB4801F0FEF94FF4B8
:1016C0008051F94801F0F9F900251BE04FF4005171
:1016D000F54801F0F2F904F0800028B14FF4004120
:1016E000F14801F0E8F904E04FF40041EE4801F060
:1016F000E4F94FF40051EC4801F0DDF96006040E06
:10170000681CC5B2082DE1DB4FF48051E64801F0BA
:10171000D2F94FF48061E44801F0CDF970BD70B5A5
:1017200004460D4605F1B001C8B20021FFF7B8FF2D
:10173000102141EA14100021FFF7B2FF04F00F015D
:1017400041F001000021FFF7ABFF70BD10B5002193
:101750008D20FFF7A5FF00211420FFF7A1FF002136
:10176000AF20FFF79DFF10BD10B500218D20FFF7C2
:1017700097FF00211020FFF793FF0021AE20FFF715
:101780008FFF10BD70B5002419E004F1B001C8B29C
:101790000021FFF785FF00210846FFF781FF0021A8
:1017A0001020FFF77DFF002505E001210020FFF755
:1017B00077FF681CC5B2802DF7DB601CC4B2082C13
:1017C000E3DB70BD2DE9F04107460E46904600254B
:1017D0000024A8F12000C5B27F2F02DD0027B01C35
:1017E000C6B231463846FFF79AFF002408E004EB02
:1017F0000511AE4A505C0121FFF752FF601CC4B2D4
:10180000082CF4DB701CC1B23846FFF788FF0024B7
:1018100009E004EB05110831A44A505C0121FFF7EF
:101820003FFF601CC4B2082CF3DBBDE8F08110B5AB
:101830000246012000E050430B1EA1F10104E1B279
:10184000F9D110BD2DE9FF5F074691461D460E9E5A
:101850004FF0000A002433E0281B401EC1B20A20CA
:10186000FFF7E5FFB9FBF0F00A21B0FBF1F201FB55
:101870001208BAF1000F13D1681EA04210DDB8F1B2
:10188000000F0BD1B34606EBDB71491001FB04716D
:10189000C8B220220199FFF795FF0FE04FF0010A2F
:1018A000B34606EBDB71491001FB0471C8B208F1C5
:1018B0003001CAB20199FFF785FF00BF601CC4B2B6
:1018C000AC42C9DBBDE8FF9F2DE9F04104460F465D
:1018D000154600260EE0AA5D39462046FFF772FF46
:1018E00004F10800C4B2782C02DD0024B81CC7B291
:1018F000701CC6B2A85D0028EDD1BDE8F0812DE9CD
:10190000F04782460F4690461E46DDF82090B9F11A
:10191000200F1AD1002415E03819C1B25046FFF744
:10192000FEFE00250AE006FB0841614A02EB411178
:10193000485D0121FFF7B4FE681CC5B24D45F2DBDE
:10194000601CC4B2B442E7DB19E0002415E038198A
:10195000C1B25046FFF7E3FE00250AE006FB08414E
:10196000544A02EB4111485D0121FFF799FE681CC2
:10197000C5B24D45F2DB601CC4B2B442E7DBBDE842
:10198000F0872DE9F05F06460F4690461C46DDF8CD
:1019900028A04FF0000BE11704EB5171C910A4EB24
:1019A000C10131B92046E11704EB5171C1F3C705FC
:1019B00006E02046E11704EB5171C910491CCDB275
:1019C0003D4615E029463046FFF7A9FEB1460BE03B
:1019D00059460BF1010B1AF801000121FFF760FED7
:1019E00009F1010000F0FF09C145F1DB681CC5B237
:1019F000A542E7DBBDE8F09F08B50121082001F012
:101A000069FA4BF60240ADF8000010208DF8030093
:101A100003208DF802006946234800F09FFF4BF633
:101A20000241214801F047F84021234801F043F8E2
:101A3000642000F03AFE40211F4801F03EF8C82023
:101A400000F033FE40211C4801F035F80021AE20A3
:101A5000FFF726FE00210846FFF722FE0021102096
:101A6000FFF71EFE00214020FFF71AFE0021812013
:101A7000FFF716FE0021CF20FFF712FE0021A12064
:101A8000FFF70EFE0021C820FFF70AFE0021A62066
:101A9000FFF706FE0021A820FFF702FE00213F20ED
:101AA000FFF7FEFD002109E0000C0140D84B0008C3
:101AB000980D00201812002000180140D320FFF7D5
:101AC000EFFD00210846FFF7EBFD0021D520FFF7D1
:101AD000E7FD00218020FFF7E3FD0021D920FFF77B
:101AE000DFFD0021F120FFF7DBFD0021DA20FFF709
:101AF000D7FD00211220FFF7D3FD0021DB20FFF7E7
:101B0000CFFD00214020FFF7CBFD00212020FFF773
:101B1000C7FD00210220FFF7C3FD00218D20FFF744
:101B2000BFFD00211420FFF7BBFD0021A420FFF71B
:101B3000B7FD0021A620FFF7B3FD0021AF20FFF77E
:101B4000AFFD0021AF20FFF7ABFDFFF71BFE00212B
:101B50000846FFF7E4FD08BD08B520200423002255
:101B6000114600901420FFF7CAFE20200423012212
:101B7000002100903220FFF7C2FE20200423022221
:101B8000002100905020FFF7BAFE202004230322FA
:101B9000194600902320FFF7B2FE202004231A46A6
:101BA000194600904120FFF7AAFE08BDF8B504468B
:101BB0000E46154610200223002231460090204692
:101BC000FFF79DFE102004F10F010090C8B2022320
:101BD00001223146FFF793FE102004F11E01009010
:101BE000C8B202231A463146FFF789FE102004F1DD
:101BF0002D010090C8B2022303223146FFF77FFE79
:101C0000012D09D1102004F13C010090C8B202233B
:101C10000A223146FFF773FEF8BDF8B504460E46BA
:101C20001546102002230422314600902046FFF77B
:101C300066FE102004F10F010090C8B202230522B5
:101C40003146FFF75CFE102004F11E010090C8B27F
:101C500002231A463146FFF752FE102004F12D01EF
:101C60000090C8B2022303223146FFF748FE012D3F
:101C700009D1102004F13C010090C8B202230A22CD
:101C80003146FFF73CFEF8BDF8B504460E46154652
:101C9000102002230622314600902046FFF72FFE37
:101CA000102004F10F010090C8B202230722314630
:101CB000FFF725FE102004F11E010090C8B2022398
:101CC0001A463146FFF71BFE102004F12D0100904B
:101CD000C8B2022303223146FFF711FE012D09D1BC
:101CE000102004F13C010090C8B202230A223146C0
:101CF000FFF705FEF8BD000000B587B001214FF4E5
:101D0000077001F0E7F84FF4004001F047F8EB20CE
:101D1000ADF8040000208DF8070001A96A4800F022
:101D20001DFE0120ADF8040000208DF8070001A978
:101D3000664800F013FE1520ADF8040000208DF871
:101D4000070001A9624800F009FE624802F0A6FA05
:101D50000020029001208DF80C008DF80D004FF44A
:101D600060200490002005900F208DF8180002A933
:101D7000584802F0BAFA07230A220021554802F017
:101D80004CFB072309220121524802F046FB07239E
:101D9000082202214F4802F040FB07231A46032184
:101DA0004C4802F03AFB072306220421494802F07E
:101DB00034FB072305221146464802F02EFB072379
:101DC00004220621434802F028FB07230322194678
:101DD000404802F022FB07230E2208213D4802F072
:101DE0001CFB07230F220A213A4802F016FB0723A7
:101DF0000D220B21374802F010FB07230C2211465D
:101E0000344802F00AFB07230B220D21314802F06F
:101E100004FB072302220E212E4802F0FEFA0723BC
:101E200001220F212B4802F0F8FA0121294802F083
:101E300093FA0121274802F084FA264802F0A3FA17
:101E400000BF244802F0A4FA0028FAD1214802F089
:101E5000A9FA00BF1F4802F0AAFA0028FAD101210E
:101E60001C4802F0AEFA07B000BD10B504460723C7
:101E700001222146174802F0D0FA0121154802F04C
:101E8000A0FA00BF0221134802F00CFC0028F9D090
:101E9000104802F029FB10BD2DE9F04107460C4621
:101EA0000025002608E03846FFF7DFFF054405203F
:101EB00000F0FBFB701CC6B2A642F4DBB5FBF4F0ED
:101EC00080B2BDE8F081000000080140000C014034
:101ED000001001400024014008B50121042000F059
:101EE000F9FF4FF42040ADF8000010208DF80300FA
:101EF00003208DF802006946304800F02FFD4FF4B2
:101F000000512F4800F0D9FD4FF400412C4800F05B
:101F1000D4FD0121202000F0DDFF3F20ADF80000BE
:101F200048208DF8030003208DF8020069462348FD
:101F300000F014FD0121202000F0CCFF4FF2C00082
:101F4000ADF8000048208DF8030003208DF8020052
:101F500069461A4800F002FD0121102000F0BAFF86
:101F60004020ADF8000048208DF8030003208DF8D4
:101F700002006946134800F0F1FC08BD70B5044644
:101F80000D462946204600F07CFD08B9002070BDB2
:101F90000120FCE770B504460D462946204600F0B6
:101FA00070FD48B9142000F080FB2946204600F05F
:101FB00068FD08B9012070BD0020FCE70014014055
:101FC000000801400010014008B50121602000F028
:101FD00081FF4FF47460ADF8000010208DF803000D
:101FE00003208DF8020069461D4800F0B7FC6946E1
:101FF0001C4800F0B3FC4FF48071194800F05DFDFF
:102000004FF46061164800F056FD4021154800F07D
:1020100052FD08BD10B504462CB14FF48071104834
:1020200000F049FD04E04FF480710D4800F045FDDB
:1020300010BD10B50446642C00DD6424102108484E
:1020400000F039FD204600F030FB1021044800F07C
:1020500034FDC4F1640188B200F027FB10BD00001C
:1020600000140140001801407FB505460C460121CF
:10207000084600F03CFFADF80850ADF804400020E1
:10208000ADF80A00ADF8060001A94FF0804001F05C
:10209000CBFA01221146900701F03DFE1C208DF87D
:1020A000000000208DF8010003208DF802000120BF
:1020B0008DF80300684601F07AF90121880701F0E4
:1020C0000FFE7FBD70B56F4802F0C1F805466E483F
:1020D00000882C1A002C03DA02206C49087009E0F1
:1020E000002C03DD01206949087003E00024002072
:1020F0006649087064480580201E01DB014600E047
:102100004142782904DD6248048800205E49088045
:102110005F490C80204670BD10B50121880702F090
:10212000A8F838B10121880702F0B4F8FFF7CAFF18
:102130005849086010BD7FB505460C4601210820AE
:1021400000F0D5FEADF80850ADF804400020ADF821
:102150000A00ADF8060001A94A4801F065FA3220EC
:102160008DF8000000208DF8010003208DF802009A
:1021700001208DF80300684601F019F90121464855
:1021800001F0AEFD7FBD002079E044494989444A11
:10219000126802EB6101424A116040490989414AD3
:1021A000126802EB61013F4A11603C49C9883E4A0E
:1021B000126802EB61013C4A1160384989883B4A48
:1021C000126802EB6101394A116034494988384A82
:1021D000126802EB6101364A116030490988354ABC
:1021E000126802EB6101334A11602C498989324A35
:1021F000126802EB6101304A11602849C9892F4AEF
:10220000126802EB61012D4A11602449098A2C4AA7
:10221000126802EB61012A4A11602049498A294A61
:10222000126802EB6101274A11601C49898A264A1B
:10223000126802EB6101244A11601849C98A234AD5
:10224000126802EB6101214A11601449498B204A4E
:10225000126802EB61011E4A11601049098B1D4A88
:10226000126802EB61011B4A11600C49898B1A4A02
:10227000126802EB6101184A1160411CC8B20228C1
:1022800083DB704700040040E0140020D8140020D5
:10229000E2140020DC140020000C00402015002077
:1022A0000000002004000020080000200C00002096
:1022B0001000002014000020180000201C00002046
:1022C0002000002024000020280000202C000020F6
:1022D000300000203400002038000020F0B58BB022
:1022E00007460D4616461C460121084600F0E5FD4E
:1022F000384602F0FBF915490C7000950196002054
:102300000290039404908020059040000690800085
:102310000790202008900002099000200A9069464A
:10232000384602F085FA0121094802F0ACFA0BB0F8
:10233000F0BD10B5022002F0E0FA28B1022002F050
:10234000F0FA022002F0EDFA10BD0000E4140020C3
:102350000800024038B50446B1480068844219D9E3
:102360000021B04801F054FF0021AE4801F052FFB7
:102370000021AC4801F050FF0021AA4801F04EFFB7
:1023800007E00C2004230022194600901A20FFF7D2
:1023900059FAF6E7A448008881B2A24801F038FF54
:1023A000A1B2A04801F036FFA1B29E4801F034FF6F
:1023B0009D48008881B29B4801F030FF38BD38B598
:1023C000044697480068844219D90021954801F0D5
:1023D0001FFF0021934801F01DFF0021914801F0EB
:1023E0001BFF00218F4801F019FF07E00C20042398
:1023F0000022194600901A20FFF724FAF6E78A48CF
:10240000008881B2874801F003FFA1B2854801F03E
:1024100001FFA1B2834801F0FFFE8348008881B22A
:10242000804801F0FBFE38BD10B500217D4801F069
:10243000EFFE00217B4801F0EDFE0021794801F01C
:10244000EBFE0021774801F0E9FE10BD38B50446E7
:102450000D4673480068844203D87148006885427D
:1024600019D900216F4801F0D3FE00216D4801F019
:10247000D1FE00216B4801F0CFFE0021694801F038
:10248000CDFE07E00C2004230022194600901A20FC
:10249000FFF7D8F9F6E7A1B2624801F0B9FE624849
:1024A000008881B25F4801F0B5FE5F48008881B2C4
:1024B0005C4801F0B1FEA9B25A4801F0AFFE38BD48
:1024C00038B5044656480068844219D90021554859
:1024D00001F09EFE0021534801F09CFE002151486E
:1024E00001F09AFE00214F4801F098FE07E00C2011
:1024F00004230022194600901A20FFF7A3F9F6E7FB
:102500004948008881B2474801F082FEA1B245489F
:1025100001F080FE4448008881B2424801F07CFE10
:10252000A1B2404801F07AFE38BD38B504463C48B7
:102530000068844219D900213A4801F069FE00215F
:10254000384801F067FE0021364801F065FE0021A1
:10255000344801F063FE07E00C20042300221946F2
:1025600000901A20FFF76EF9F6E7A1B22D4801F0AE
:102570004FFE2D48008881B22A4801F04BFEA1B2DF
:10258000284801F049FE2848008881B2254801F01A
:1025900045FE38BD38B5044621480068844211D94B
:1025A0000021224801F038FE0021204801F036FECB
:1025B00007E00C2004230022194600901A20FFF7A0
:1025C00041F9F6E71848008881B2184801F024FE66
:1025D000A1B2164801F022FE38BD38B504461048B5
:1025E0000068844211D90021104801F015FE002135
:1025F0000E4801F013FE07E00C20042300221946C8
:1026000000901A20FFF71EF9F6E7A1B2074801F083
:1026100003FE0548008881B2044801F0FFFD38BD83
:10262000FC140020002C0140F014002000080040A1
:1026300010B56FF0040000F004FF2E4800682E492A
:10264000B0FBF1F02D4908700846007800EB40011E
:10265000C1EBC0104FF6FF7101EAC00028490880A5
:1026600010BD0146254A12784A434FF0E0235A61D3
:1026700000229A611A46126942F001021A6100BFF3
:102680004FF0E022106900F001021AB100F480322C
:10269000002AF5D04FF0E022126922F001024FF03B
:1026A000E0231A6100229A6170470146144A128899
:1026B0004A434FF0E0235A6100229A611A46126998
:1026C00042F001021A6100BF4FF0E022106900F0F1
:1026D00001021AB100F48032002AF5D04FF0E02256
:1026E000126922F001024FF0E0231A6100229A6180
:1026F000704700000001002000127A000015002041
:102700000215002030BF704772B6704762B670473E
:1027100010B54FF4806000F045FE10BD014600BFCB
:10272000704700BF494A128802F04002002AF9D0DF
:10273000C2B2464B1B1D1A80704710B586B00446C6
:10274000012144F2040000F0C5FB4FF40070ADF825
:10275000140003208DF8160018208DF8170005A925
:102760003B4800F0FBF84FF48060ADF81400042003
:102770008DF8170005A9364800F0F0F825208DF8EF
:10278000000003208DF801008DF8020001208DF873
:102790000300684600F00BFE01940020ADF808002D
:1027A000ADF80A00ADF80C00ADF810000C20ADF843
:1027B0000E0001A9254800F034FC012240F2255109
:1027C000224800F0C6FC0121204800F0B6FC06B00B
:1027D00010BD10B540F225511C4800F09FFD10B30C
:1027E0001A4800F01BFDC4B21A48008800F40040EB
:1027F000C8B91848008800F4804060B10A2C03D0A2
:1028000000201449088020E01248008840F400406D
:102810001049088019E00D2C06D10E48008840F4BC
:1028200080400C49088010E00A480088C0F30D0081
:1028300009490C5407480088401C0649088008468E
:102840000088C72801DD0020088010BD0038014045
:1028500000080140081500203E1500200948804767
:1028600009480047FEE7FEE7FEE7FEE7FEE7FEE772
:10287000FEE7FEE7FEE7FEE704480549054A064B8A
:1028800070470000A71200083101000868160020F8
:10289000681C0020681800206818002010B5044645
:1028A000CC48844208D10121042000F02DFB0021F6
:1028B000042000F029FB46E0C748844208D10121EA
:1028C000082000F021FB0021082000F01DFB3AE069
:1028D000C248844208D10121102000F015FB0021DC
:1028E000102000F011FB2EE0BD48844208D10121E8
:1028F000202000F009FB0021202000F005FB22E051
:10290000B848844208D10121402000F0FDFA00219E
:10291000402000F0F9FA16E0B348844208D10121C2
:10292000802000F0F1FA0021802000F0EDFA0AE0AA
:10293000AE48844207D10121801500F0E5FA00215C
:10294000A01500F0E1FA10BD10B50121084600F015
:10295000DBFA0021012000F0D7FA10BD2DE9F0418B
:10296000024600250026002000230024002791F8BD
:1029700003C00CF00F0591F803C00CF0100CBCF173
:10298000000F03D091F802C04CEA050591F800C091
:10299000BCF1000F31D0146800202BE04FF0010C87
:1029A0000CFA00F3B1F800C00CEA03069E4220D1F5
:1029B00083004FF00F0C0CFA03F7BC4305FA03FC3D
:1029C0004CEA040491F803C0BCF1280F06D14FF083
:1029D000010C0CFA00FCC2F814C00AE091F803C024
:1029E000BCF1480F05D14FF0010C0CFA00FCC2F805
:1029F00010C0401C0828D1D31460B1F800C0BCF14D
:102A0000FF0F34DD546800202EE000F1080C4FF079
:102A1000010808FA0CF3B1F800C00CEA03069E4264
:102A200021D183004FF00F0C0CFA03F7BC4305FAD9
:102A300003FC4CEA040491F803C0BCF1280F05D153
:102A400000F1080C08FA0CF8C2F8148091F803C0E1
:102A5000BCF1480F07D100F1080C4FF0010808FA4B
:102A60000CF8C2F81080401C0828CED35460BDE892
:102A7000F0814FF6FF710180022181700421C17045
:102A800070470246002093680B400BB1012000E024
:102A9000002070470146886880B2704702460020D7
:102AA000D3680B400BB1012000E0002070470146C5
:102AB000C86880B2704701617047416170470AB1D0
:102AC000016100E041617047C16070474FF480329E
:102AD0000A4382618161826182698269704702462C
:102AE0000020434B18684FF68073184040EA0210EC
:102AF00008433F4B186070473E49C8617047F0B5C6
:102B00000A46002300240021002500F00046B6F10B
:102B1000004F02D1364EF16901E0354E7168C0F3C5
:102B2000034583B200F44016B6F5401F08D121F0EA
:102B300070612F4E766826F070662D4F7E6012E031
:102B400000F48016B6F5801F06D1032606FA05F4B8
:102B5000A14341F0706106E0460D360103FA06F626
:102B6000B14341F0706122B1460D360103FA06F619
:102B7000314300F00046B6F1004F02D11C4EF16126
:102B800001E01B4E7160F0BD30B500228B071C0FB9
:102B90000F2303FA04F2164B08338C1053F8243039
:102BA0009343134C08348D1044F8253023468C1081
:102BB00053F824308C07240F00FA04F423430C4C00
:102BC00008348D1044F8253030BD0A49DC310860E6
:102BD0007047000000080140000C01400010014057
:102BE0000014014000180140001C01400020014079
:102BF0000000014000002042DF48006840F0010072
:102C0000DD49086008464068DC490840DA49486008
:102C100008460068DA490840D74908600846006855
:102C200020F4802008600846406820F4FE004860D8
:102C30004FF41F0088607047CF49096821F4803144
:102C4000CD4A11601146096821F480211160B0F568
:102C5000803F03D0B0F5802F0ED106E0C649096849
:102C600041F48031C44A116007E0C349096841F466
:102C7000A021C14A116000E000BF00BF704710B53D
:102C800001460022002300204A11012A02D1BA4C39
:102C9000236806E0022A02D1B74C236A01E0B64C51
:102CA000636A01F01F02012494401C400CB1012012
:102CB00000E0002010BD38B5002000900024002561
:102CC00000BF3120FFF7DBFF05460098401C009055
:102CD0000098B0F5A06F01D0002DF2D03120FFF7A1
:102CE000CEFF08B1012400E00024204638BD014693
:102CF0000020A14A106820F0F80040EAC1001060EE
:102D00007047A04908607047024600209A4B5868F7
:102D100020F47C1042EA01031843974B5860704737
:102D200098490866704701460020934A506820F091
:102D300003000843506070478F48406800F00C0063
:102D40007047014600208C4A506820F0F00008438C
:102D50005060704701460020874A506820F4E060C8
:102D600008435060704701460020834A506820F4B1
:102D7000605040EAC1005060704729B17E4A527AE3
:102D800002437D4B5A7204E07B4A527A82437A4B6B
:102D90005A7270477B49D83108607047014600205D
:102DA000754A506820F44040084350607047002145
:102DB000714A20321170704A82F82010012802D026
:102DC00004280AD104E001216B4A2032117005E089
:102DD0000521694A2032117000E000BF00BF704732
:102DE0006949086070476449096A0143624A11628F
:102DF0007047654944390860704730B500210022AA
:102E0000002400235C4D6D6805F00C0121B10429FC
:102E100005D0082923D105E05C4D056022E05B4D1B
:102E200005601FE0544D6D6805F47012524D6D68D9
:102E300005F48034022505EB92421CB9544D5543EC
:102E400005600BE04C4D6D6805F400351DB1504D2B
:102E50005543056002E04D4D5543056002E04B4D82
:102E6000056000BF00BF444D6D6805F0F001090921
:102E7000484D6B5C0568DD4045603F4D6D6805F46D
:102E8000E061090A434D6B5C4568DD4085603A4D61
:102E90006D6805F46051C90A3E4D6B5C4568DD40C4
:102EA000C560354D6D6805F44041890B3A4D6B5C4A
:102EB000C568B5FBF3F5056130BD29B12E4A5269ED
:102EC00002432D4B5A6104E02B4A526982432A4B3C
:102ED0005A61704729B1284A92690243264B9A6188
:102EE00004E0254A92698243234B9A61704729B1D5
:102EF000214AD2690243204BDA6104E01E4AD269BA
:102F000082431D4BDA61704729B11B4AD2680243E4
:102F1000194BDA6004E0184AD2688243164BDA6033
:102F2000704729B1144A12690243134B1A6104E035
:102F3000114A12698243104B1A6170471249403995
:102F4000086070470F49C86470470B49C8717047E3
:102F50000948406A40F0807007494862704701465E
:102F60000020054A92680A400AB1012000E00020D2
:102F70007047014988727047001002400000FFF856
:102F8000FFFFF6FE000042428004424200127A0037
:102F900000093D000A1500201A15002010B504464E
:102FA000FB48844209D101218803FFF7ADFF0021CE
:102FB0004FF48040FFF7A8FF32E0F648844209D181
:102FC00001214804FFF7ADFF00214FF40030FFF767
:102FD000A8FF25E0F048844209D101218804FFF7C9
:102FE000A0FF00214FF48020FFF79BFF18E0EB4883
:102FF000844209D10121C804FFF793FF00214FF457
:103000000020FFF78EFF0BE0E548844208D1012144
:103010000805FFF786FF00214FF48010FFF781FFBE
:1030200010BD2DE9F04786B005460E460024A246A5
:1030300000BFA1460027B08900B100BF2F462C8AEF
:103040004CF6FF700440F08804432C82AC894EF6A5
:10305000F3100440B0883189084371890843044360
:10306000AC81AC8A4FF6FF400440B0890443AC8287
:1030700001A8FFF7C2FEC648874202D1DDF810A0C2
:1030800001E0DDF80CA0A88900F4004040B10AEB93
:10309000CA0000EB0A1031684900B0FBF1F807E004
:1030A0000AEBCA0000EB0A1031688900B0FBF1F8A6
:1030B0006420B8FBF0F004012009642101FB1089B1
:1030C000A88900F4004040B1322000EBC900B0FBF9
:1030D000F1F000F00700044308E0322000EB091093
:1030E0006421B0FBF1F000F00F0004432C8106B026
:1030F000BDE8F0874FF41651016000218180C18046
:1031000001810C21418100218181704710B5024667
:103110000020108A4FF2FF0318400B884C8823438D
:103120008C882343CC8823431843108210BD002190
:10313000018041808180C180704721B1828942F441
:103140000052828104E082894DF6FF731A40828129
:103150007047F0B50346002400260025002040F605
:103160006A17B94200D100BF1846C1F3421401F0FA
:103170001F06012707FA06F5012C01D10C3004E0E7
:10318000022C01D1103000E014301AB107682F432F
:10319000076002E00768AF430760F0BD1AB1838A99
:1031A0000B43838202E0838A8B4383827047028AC7
:1031B0004FF6F0731A400282028A0A430282704775
:1031C00082894FF2FF731A40828182890A43828189
:1031D000704721B1828942F00202828104E0828933
:1031E0004FF6FD731A4082817047028A4FF6DF73F3
:1031F0001A400282028A0A430282704721B1028A7F
:1032000042F48042028204E0028A4BF6FF731A40C5
:1032100002827047C1F308028280704701468888A5
:10322000C0F308007047818941F001018181704736
:10323000028BD2B20283028B42EA012202837047E0
:10324000028B02F47F420283028B0A43028370479F
:1032500021B1828A42F02002828204E0828A4FF603
:10326000DF731A408282704721B1828A42F01002D5
:10327000828204E0828A4FF6EF731A40828270479E
:1032800021B1828A42F00802828204E0828A4FF6EB
:10329000F7731A408282704721B1828942F400425A
:1032A000828103E08289C2F30E028281704721B1DC
:1032B000828A42F40062828204E0828A4FF2FF73C3
:1032C0001A4082827047828A4FF6FB731A408282CC
:1032D000828A0A438282704721B1828A42F00202C6
:1032E000828204E0828A4FF6FD731A408282704720
:1032F00002460020B1F5007F00D100BF13880B40CB
:103300000BB1012000E00020704701F40072B2F51B
:10331000007F00D100BFCA430280704770B50246EB
:10332000002400230025002040F66A16B14200D197
:1033300000BFC1F3421501F01F03012606FA03F393
:10334000012D02D19689334006E0022D02D1168A62
:10335000334001E0968A33400C12012606FA04F449
:103360001688344013B10CB1012000E0002070BD7C
:1033700010B50022002340F66A14A14200D100BF1C
:103380000A1201249440A3B2DC43048010BD000063
:10339000003801400044004000480040004C00401C
:1033A0000050004031490143314A1160704770B507
:1033B000002100230F22C47804B32D4C246804F4A8
:1033C000E064C4F5E064210AC1F10403CA40447812
:1033D00004FA03F18478144021430901254C06784E
:1033E000A155047804F01F050124AC4005786D1147
:1033F000AD0005F1E025C5F8004109E0047804F0CE
:103400001F050124AC401C4D0678761145F8264076
:1034100070BD1A4A0A400243154B1B1F1A607047C1
:1034200039B1134A121D12680243114B1B1D1A6059
:1034300006E00F4A121D126882430D4B1B1D1A60D5
:103440007047042808D14FF0E021096941F00401D8
:103450004FF0E022116107E04FF0E021096921F00F
:1034600004014FF0E0221161704700000000FA05EE
:103470000CED00E000E400E080E100E080FFFF1FD1
:1034800010B50446FE48844208D10121C014FFF75C
:103490003BFD0021E014FFF737FDC4E0B4F1804F9D
:1034A00008D101210846FFF73CFD00210120FFF76C
:1034B00038FDB8E0F348844208D101210220FFF72B
:1034C00030FD00210220FFF72CFDACE0EE488442E5
:1034D00008D101210420FFF724FD00210420FFF77B
:1034E00020FDA0E0E948844208D101210820FFF72F
:1034F00018FD00210820FFF714FD94E0E448844201
:1035000008D101211020FFF70CFD00211020FFF74A
:1035100008FD88E0DF48844208D101212020FFF720
:1035200000FD00212020FFF7FCFC7CE0DA4884420B
:1035300008D101214014FFF7E7FC00216014FFF7D8
:10354000E3FC70E0D548844209D10121C804FFF7AB
:10355000DBFC00214FF40020FFF7D6FC63E0D048ED
:10356000844209D101210805FFF7CEFC00214FF468
:103570008010FFF7C9FC56E0CA48844209D10121F6
:103580004805FFF7C1FC00214FF40010FFF7BCFC19
:1035900049E0C548844208D101214020FFF7C1FC21
:1035A00000214020FFF7BDFC3DE0C048844208D127
:1035B00001218020FFF7B5FC00218020FFF7B1FC3E
:1035C00031E0BB48844208D101218015FFF7A9FCF6
:1035D0000021A015FFF7A5FC25E0B648844209D1DB
:1035E00001210804FFF790FC00214FF48030FFF721
:1035F0008BFC18E0B048844209D101214804FFF750
:1036000083FC00214FF40030FFF77EFC0BE0AB4859
:10361000844208D101218804FFF776FC00214FF491
:103620008020FFF771FC10BD00220288944B984265
:103630000ED0994B98420BD0B0F1804F08D0914BEF
:10364000984205D0904B984202D0904B984204D1BA
:103650004FF68F731A404B881A438D4B984207D010
:103660008C4B984204D04FF6FF431A40CB881A4344
:1036700002808B8883850B880385814B98420BD011
:10368000854B984208D08B4B984205D08A4B984284
:1036900002D08A4B984201D10B7A038601238382A0
:1036A000704770B5002400220023058C4FF6FE768B
:1036B00035400584028C8388048B4FF68F752C402F
:1036C000B51E2C400D882C43751E2A400D892A43B7
:1036D0004D882A436A4DA8420BD06F4DA84208D0AE
:1036E000744DA84205D0744DA84202D0734DA84233
:1036F00013D14FF6F7752A404D892A434FF6FB75D3
:103700002A408D882A434FF6FF652B404FF6FF5520
:103710002B408D892B43CD892B4383800483CD8817
:103720008586028470BD70B5002400220023058CBC
:103730004FF6EF7635400584028C8388048B48F67B
:10374000FF752C404FF6FF452C400D884FF6FF7655
:1037500006EA05252C434FF6DF752A400D8906EA57
:1037600005152A434D8806EA05152A43444DA8420B
:1037700002D0494DA8421DD14FF67F752A404D8990
:103780004FF6FF7606EA05152A434FF6BF752A4025
:103790008D8806EA05152A434FF6FF352B404FF278
:1037A000FF752B408D8906EA85052B43CD8906EAF6
:1037B00085052B4383800483CD880587028470BDF3
:1037C00070B5002400220023058C4FF6FF663540BB
:1037D0000584028C8388848B4FF68F752C404FF6BE
:1037E000FC752C400D882C434FF6FF552A400D895F
:1037F0004FF6FF7606EA05252A434D8806EA052599
:103800002A431F4DA84202D0234DA8421DD14FF29A
:10381000FF752A404D894FF6FF7606EA05252A43B3
:103820004FF6FF352A408D8806EA05252A434EF6D5
:10383000FF752B404DF6FF752B408D8906EA051567
:103840002B43CD8906EA05152B4383808483CD88DD
:103850008587028470BD70B5002200230024058C8A
:103860004EF6FF7635400584038C8488828B48F6BB
:10387000FF752A404FF6FF452A400D8820E00000E2
:10388000002C01400004004000080040000C0040F3
:10389000001000400014004000340140004C014082
:1038A000005001400054014000180040001C00403E
:1038B0000020004000400140004401400048014019
:1038C0004FF6FF7606EA05252A434DF6FF752B4095
:1038D0000D8906EA05352B434D8806EA05352B434D
:1038E000FA4DA84202D0FA4DA84208D14BF6FF7516
:1038F0002C408D894FF6FF7606EA85152C4384808F
:103900008283CD88A0F84050038470BD828B4FF233
:10391000FF331A408283828B4FF6FF7303EA012341
:103920001A4382837047F0B50C46154600220021E9
:103930000026078C4EF6FF7C07EA0C070784828B73
:10394000018C4FF6FF7707EA043640F6FF473A400E
:103950004FF6FF7707EA05273A434FF6FF7707EA66
:1039600003373A43D94FB8420ED0D94FB8420BD0A3
:10397000B0F1804F08D0D74FB84205D0D64FB842EB
:1039800002D0D64FB84206D14DF6FF77394046F403
:103990008057394305E047F6FF57394044F48057D4
:1039A000394382830184F0BD828B4FF6F3731A4052
:1039B0008283828B0A4382837047F0B50C4615469A
:1039C000002200210026078C4FF6FF6C07EA0C0747
:1039D0000784828B018C4FF6FF7707EA04264FF6A7
:1039E0000C773A404FF6FF7707EA03172F433A4325
:1039F000B64FB8420ED0B64FB8420BD0B0F1804FA0
:103A000008D0B44FB84205D0B34FB84202D0B34F3C
:103A1000B84206D14FF6FF57394046F48077394314
:103A200005E04FF2FF57394044F4807739438283F1
:103A30000184F0BD028B4FF2FF331A400283028BE8
:103A40004FF6FF7303EA01231A4302837047F0B570
:103A50000C461546002200210026078C4FF6EF7C0D
:103A600007EA0C070784028B018C4FF6FF7707EA01
:103A7000041640F6FF473A404FF6FF7707EA033750
:103A80003A434FF6FF7707EA05273A438F4FB8428C
:103A90000ED08F4FB8420BD0B0F1804F08D08D4F71
:103AA000B84205D08C4FB84202D08C4FB84206D1F4
:103AB0004FF6DF77394046F01007394305E04FF6FF
:103AC0005F77394044F01007394302830184F0BD29
:103AD000028B4FF6F3731A400283028B0A43028370
:103AE0007047F0B50C46154600220021068C4FF6B3
:103AF000FE773E400684028B018C4FF60C763240F6
:103B00007E1C06EA03162E433243704EB0420ED09E
:103B10006F4EB0420BD0B0F1804F08D06D4EB04226
:103B200005D06D4EB04202D06C4EB04206D14FF679
:103B3000FD76314044F00106314305E04FF6F5765D
:103B4000314044F00106314302830184F0BD70B579
:103B500005460C465D4885420ED05D4885420BD037
:103B6000B5F1804F08D05B48854205D05A48854260
:103B700002D05A48854200D100E000BF208850B9E9
:103B80002389A28861882846FFF7ABFFE188284691
:103B9000FFF79EFF25E0208804280AD12389A28808
:103BA00061882846FFF753FFE1882846FFF742FF68
:103BB00017E0208808280AD12389A288618828462E
:103BC000FFF7FBFEE1882846FFF7EEFE09E02389B8
:103BD000A28861882846FFF7A6FEE1882846FFF7FD
:103BE00095FE70BD2DE9F04105460C4600260127E3
:103BF000608808B9022600E00026A088012801D1CB
:103C0000022700E001272088A0B92389A2886188C3
:103C10002846FFF766FFE1882846FFF759FF23890A
:103C20003A4631462846FFF712FFE1882846FFF75B
:103C300001FF13E02389A28861882846FFF707FF68
:103C4000E1882846FFF7F6FE23893A4631462846A2
:103C5000FFF747FFE1882846FFF73AFFBDE8F0810C
:103C60000A884B881A438B881A43CB881A430B89DE
:103C70001A434B891A438B891A43A0F84420704792
:103C80004FF6FF71818000210180C1804180017267
:103C900070470021018041808180C1800181418184
:103CA0008181C18170470021018041800121818093
:103CB0000021C18001817047002101804180818005
:103CC000C18001814181818170470000002C014049
:103CD000003401400004004000080040000C004097
:103CE00021B1028842F00102028004E002884FF60E
:103CF000FE731A400280704731B1B0F8442042F49C
:103D00000042A0F8442005E0B0F84420C2F30E02BF
:103D1000A0F8442070471AB183890B43838102E0E5
:103D200083898B43838170478182704741EA020314
:103D3000A0F8483070471AB183890B43838102E0B1
:103D400083898B438381704701894FF6F872114054
:103D5000018170470A46002101894FF68F7319408F
:103D600011430181704730B504460D46294620466F
:103D7000FFF7F0FF208940F00700208130BD2DE9DA
:103D8000F04104460D4616461F46602D06D13B46BF
:103D9000012231462046FFF75AFE05E03B4601224C
:103DA00031462046FFF79DFE29462046FFF7D2FF09
:103DB000208940F007002081BDE8F08130B50C4635
:103DC00000210189C9B24FF6FF7505EA03251543A5
:103DD00025432943018130BD2DE9F04105460E46BA
:103DE00017469846002443463A4631462846FFF790
:103DF000E5FF2C894FF6F870044044F007044FF6B5
:103E00008F70044044F070042C81BDE8F081F0B55F
:103E100004460D4616461F463B4632462946204676
:103E2000FFF7CCFF208940F480402081F0BD018560
:103E3000828270470A46002101884FF68F7319402D
:103E4000114301807047F0B50C4615461E4600210F
:103E5000002200230189028B038C4FF6F87739404A
:103E600021434FF6FC473A4040F201173A434FF6E0
:103E7000DD773B404FF6FF7707EA06172F433B43BA
:103E8000018102830384F0BD0A460021018B4FF6B5
:103E90008F7319401143018370470A460021018B3B
:103EA00048F6FF7319404FF6FF7303EA02231943E4
:103EB000018370470A460021818B4FF68F731940AA
:103EC0001143818370470A460021818B48F6FF73B6
:103ED00019404FF6FF7303EA0223194381837047A9
:103EE00021B1028842F08002028004E002884FF68D
:103EF0007F731A400280704721B1828842F0040229
:103F0000828004E082884FF6FB731A4082807047FB
:103F100021B1828842F00802828004E082884FF654
:103F2000F7731A408280704721B1828842F0010203
:103F3000828004E082884FF6FE731A4082807047C8
:103F40000A460021018B4FF6F77319401143018394
:103F500070470A460021018B4FF2FF7319404FF65C
:103F6000FF7303EA02231943018370470A460021C5
:103F7000818B4FF6F77319401143818370470A46CE
:103F80000021818B4FF2FF7319404FF6FF7303EA54
:103F900002231943818370470A460021018B4FF6A3
:103FA000FB7319401143018370470A460021018BBE
:103FB0004FF6FF3319404FF6FF7303EA022319430C
:103FC000018370470A460021818B4FF6FB7319402D
:103FD0001143818370470A460021818B4FF6FF33DE
:103FE00019404FF6FF7303EA022319438183704798
:103FF0000A460021018B4FF67F731940114301835C
:1040000070470A460021018BC1F30E014FF6FF7382
:1040100003EA02231943018370470A460021818B7A
:104020004FF67F7319401143818370470A46002180
:10403000818BC1F30E014FF6FF7303EA022319438C
:10404000818370470A460021018C4FF6FD731940A9
:104050001143018470470A460021018C4FF6F77323
:1040600019401143018470470A460021018C4FF624
:10407000DF7319404FF6FF7303EA021319430184FB
:1040800070470A460021018C4FF67F7319404FF6A6
:10409000FF7303EA02131943018470470A460021A3
:1040A000018C4FF6FF5319404FF6FF7303EA0223CA
:1040B0001943018470470A460021018C4FF2FF73B7
:1040C00019404FF6FF7303EA022319430184704736
:1040D0000A460021018C4DF6FF7319404FF6FF731D
:1040E00003EA023319430184704730B500230124E9
:1040F0008C40A3B2048C9C430484048C02FA01F526
:10410000ADB22C43048430BD30B5002304248C4070
:10411000A3B2048C9C430484048C02FA01F5ADB272
:104120002C43048430BD70B503460020002418469B
:10413000183001258D40ACB21D8CA5431D8409B1FA
:10414000082909D100EB6100056825F070050560BC
:104150000568154305600EE00D1FC5F34E052844A4
:10416000056825F4E045056005684FF6FF7606EA28
:1041700002263543056070BD21B1028842F002027B
:10418000028004E002884FF6FD731A4002807047F7
:1041900021B1028842F00402028004E002884FF656
:1041A000FB731A400280704721B1828842F080027E
:1041B000828004E082884FF67F731A4082807047C5
:1041C00002884FF6F7731A40028002880A43028081
:1041D000704782884FF68F731A40828082880A4324
:1041E0008280704702894FF6F8731A400281028973
:1041F0000A430281704702894FF67F731A40028199
:1042000002890A4302817047818470478185704723
:10421000818670470187704781877047A0F84010FA
:10422000704702884FF6FF431A40028002880A4313
:10423000028070470146888E70470146088F70479C
:104240000146888F70470146B1F84000704701462B
:10425000888C70470146088D704702460020138AFB
:104260000B400BB1012000E000207047CA430282DE
:10427000704730B50246002000230024158A05EA65
:104280000103958905EA010413B10CB1012000E096
:10429000002030BDCA4302827047000010B50446BA
:1042A000FA48844208D101214015FEF72DFE002175
:1042B0006015FEF729FE17E0F548844208D1012178
:1042C0000015FEF721FE00212015FEF71DFE0BE074
:1042D000F048844208D10121C803FEF715FE0021F1
:1042E0004FF40040FEF710FE10BD30B5024600202E
:1042F00000235068E84C20400D790C6844EA0524FE
:10430000204350609068E54C2040D1E902542C4392
:104310004D7944EA450420439060D06A20F470004F
:104320000C7C641EE4B2234340EA0350D06230BDEB
:1043300000210160017141718160C160012101743E
:10434000704721B1826842F00102826003E0826816
:1043500022F001028260704721B1826842F48072CB
:10436000826003E0826822F480728260704710B538
:104370000023CBB21AB144681C43446002E0446895
:104380009C43446010BD816841F008018160704722
:10439000014600208A6802F008020AB1012000E00C
:1043A00000207047816841F0040181607047014638
:1043B00000208A6802F004020AB1012000E0002017
:1043C000704721B1826842F4A002826003E08268F3
:1043D00022F4A00282607047014600208A6802F43D
:1043E00080020AB1012000E00020704710B50A46A3
:1043F00000210023416821F46041531E41EA43310A
:10440000416010BD21B1426842F40062426003E0A5
:10441000426822F4006242607047F0B504460D46DF
:1044200000200021092D11DDE068A5F10A0606EB48
:104430004607072606FA07F18843A5F10A0606EBA8
:10444000460603FA06F10843E0600CE0206905EB3C
:104450004507072606FA07F1884305EB450603FAE8
:1044600006F108432061072A0FDA606B561E06EB3F
:1044700086071F2606FA07F18843561E06EB8606B6
:1044800005FA06F10843606322E00D2A0FDA206B7B
:10449000D61F06EB86071F2606FA07F18843D61FAC
:1044A00006EB860605FA06F10843206310E0E06A91
:1044B000A2F10D0606EB86071F2606FA07F18843D0
:1044C000A2F10D0606EB860605FA06F10843E06246
:1044D000F0BD21B1826842F48012826003E08268FC
:1044E00022F48012826070470146C86C80B2704727
:1044F00066484C300068704721B1426842F48062DF
:10450000426003E0426822F480624260704721B159
:10451000426842F48052426003E0426822F48052D2
:10452000426070470A460021816821F4E04111434E
:104530008160704721B1826842F40042826003E0EA
:10454000826822F400428260704721B1826842F49E
:104550000212826003E0826822F4021282607047D5
:10456000014600208A6802F400120AB1012000E02E
:1045700000207047F0B504461546002000220026B2
:10458000092911DDE068A1F10A0707EB470C0727AD
:1045900007FA0CF29043A1F10A0707EB470703FA69
:1045A00007F21043E0600CE0206901EB410C0727A3
:1045B00007FA0CF2904301EB410703FA07F21043AC
:1045C0002061A06BC0F30156EF1C06F1010CA7EBB4
:1045D0000C0707EB870C1F2707FA0CF29043EF1C20
:1045E00006F1010CA7EB0C0707EB870701FA07F2AE
:1045F0001043A063F0BD10B50A4600210023816B73
:1046000021F44011531E41EA0351816310BD08B5E6
:10461000002300930090009B0B440093009B1A60C2
:1046200008BD08B5024600200090009201F1280064
:10463000009B184400900098006880B208BD0A46AC
:1046400000214168164B1940114341607047416297
:10465000826270470A460021416821F01F01114320
:104660004160704740B109490831096841F40001CF
:10467000064A0832116007E004490831096821F44C
:104680000001024A08321160704700000024014016
:1046900000280140003C0140FFFEF0FFFDF7F1FF64
:1046A000FFFD3FFF0246002013680B400BB10120C5
:1046B00000E000207047CA430260704770B50246B0
:1046C0000020002300240B125568CEB205EA060430
:1046D00015681D4015B10CB1012000E0002070BD2F
:1046E00000220A12D34303607047000001684FF6AE
:1046F000FE72114001600021016041608160C16073
:104700008D49884208D18C490839496841F00F0128
:10471000894A083A51608AE087491431884208D1B1
:1047200085490839496841F0F001834A083A5160E7
:104730007DE081492831884208D17F49083949689C
:1047400041F470617C4A083A516070E07A493C312A
:10475000884208D178490839496841F47041764A5D
:10476000083A516063E074495031884208D1724977
:104770000839496841F470216F4A083A516056E09F
:104780006D496431884208D16B490839496841F460
:104790007001694A083A516049E0674978318842B6
:1047A00008D165490839496841F07061624A083AA0
:1047B00051603CE06149884206D1011F096841F01F
:1047C0000F01021F116032E05C491431884208D1A8
:1047D0005A49091F096841F0F001584A121F116037
:1047E00025E056492831884208D15449091F0968F3
:1047F00041F47061514A121F116018E04F493C3179
:10480000884208D14D49091F096841F470414B4A5B
:10481000121F11600BE049495031884207D14749C6
:10482000091F096841F47021444A121F1160704742
:1048300010B50022026847F6F0739A430C6A8B6841
:1048400023430C6923434C6923438C692343CC697C
:1048500023434C6A23438C6A23431A430260CB6888
:1048600043600B6883604B68C36010BD002101602A
:1048700041608160C160016141618161C16101622A
:1048800041628162704721B1026842F00102026018
:1048900004E002684FF6FE731A40026070471AB1D6
:1048A00003680B43036002E003688B4303607047B7
:1048B000416070470146486880B270470146002059
:1048C000002201F080531BB11C4B083B1A6802E028
:1048D000194B083B1A6802EA01030BB1012000E002
:1048E0000020704700F0805119B11449091F086079
:1048F00002E0114908394860704701460020002253
:1049000001F080531BB10D4B083B1A6802E00A4BC3
:10491000083B1A6802EA01030BB1012000E0002005
:10492000704700F0805119B10449091F086002E086
:1049300001490839486070470800024008040240F5
:1049400070477047704770477047754600F02CF805
:10495000AE4605006946534620F00700854618B06C
:1049600020B5FDF789FFBDE820404FF000064FF06D
:1049700000074FF000084FF0000B21F00701AC4694
:10498000ACE8C009ACE8C009ACE8C009ACE8C009B3
:104990008D46704710B50446AFF300802046BDE851
:1049A0001040FBF730BC000000487047081600209C
:1049B0000000000000000000002F000000000700C1
:1049C000070000147F147F1400242A7F2A1200623B
:1049D00064081323003649552250000005030000E7
:1049E00000001C224100000041221C000014083E6F
:1049F00008140008083E0808000000A06000000835
:104A00000808080800006060000000201008040288
:104A1000003E5149453E0000427F40000042615146
:104A20004946002141454B31001814127F100027E0
:104A300045454539003C4A494930000171090503A3
:104A400000364949493600064949291E00003636D4
:104A50000000000056360000000814224100001437
:104A60001414141400004122140800020151090614
:104A700000324959513E007C1211127C007F494995
:104A80004936003E41414122007F4141221C007FC6
:104A900049494941007F09090901003E4149497AD4
:104AA000007F0808087F0000417F4100002040414E
:104AB0003F01007F08142241007F40404040007FBA
:104AC000020C027F007F0408107F003E4141413EFE
:104AD000007F09090906003E4151215E007F091946
:104AE00029460046494949310001017F0101003F43
:104AF0004040403F001F2040201F003F4038403FC3
:104B00000063140814630007087008070061514926
:104B1000454300007F41410000552A552A550000B9
:104B200041417F0000040201020400404040404037
:104B3000000001020400002054545478007F4844CF
:104B4000443800384444442000384444487F003806
:104B50005454541800087E0901020018A4A4A47C2F
:104B6000007F080404780000447D400000408084F9
:104B70007D00007F102844000000417F4000007C41
:104B800004180478007C080404780038444444384D
:104B900000FC242424180018242418FC007C080499
:104BA000040800485454542000043F444020003C72
:104BB0004040207C001C2040201C003C4030403CF9
:104BC000004428102844001CA0A0A07C0044645489
:104BD0004C441414141414140000000000000000CD
:104BE0000000000000000000000000F800000000CD
:104BF000000000333000000000100C06100C06000E
:104C0000000000000000000040C07840C078400074
:104C1000043F04043F040400007088FC08300000D6
:104C2000001820FF211E0000F008F000E01800002E
:104C300000211C031E211E0000F0088870000000E7
:104C40001E2123241927211010160E000000000039
:104C50000000000000000000000000E01804020056
:104C6000000000071820400000020418E0000000C7
:104C70000040201807000000404080F080404000C5
:104C80000202010F01020200000000F0000000001B
:104C90000101011F010101000000000000000000EF
:104CA00080B0700000000000000000000000000064
:104CB00000010101010101010000000000000000ED
:104CC0000030300000000000000000008060180488
:104CD000006018060100000000E010080810E00065
:104CE000000F102020100F00001010F8000000002E
:104CF0000020203F20200000007008080888700075
:104D000000302824222130000030088888483000F4
:104D10000018202020110E000000C02010F8000014
:104D200000070424243F240000F8088888080800AD
:104D30000019212020110E0000E0108888180000C2
:104D4000000F112020110E0000380808C838080094
:104D50000000003F00000000007088080888700014
:104D6000001C222121221C0000E010080810E00095
:104D70000000312222110F00000000C0C00000001E
:104D80000000003030000000000000800000000043
:104D9000000080600000000000008040201008003B
:104DA0000001020408102000404040404040400004
:104DB00004040404040404000008102040800000DF
:104DC0000020100804020100007048080808F000E4
:104DD0000000003036010000C030C828E810E000B4
:104DE0000718272423140B000000C038E00000003F
:104DF000203C23020227382008F8888888700000A9
:104E0000203F202020110E00C0300808080838007C
:104E1000071820202010080008F808080810E000F3
:104E2000203F202020100F0008F88888E808100094
:104E3000203F20202320180008F88888E808100068
:104E4000203F200003000000C030080808380000A0
:104E500007182020221E020008F808000008F808A1
:104E6000203F210101213F20000808F80808000028
:104E70000020203F2020000000000808F80808005B
:104E8000C08080807F00000008F888C028180800D3
:104E9000203F20012638200008F80800000000000C
:104EA000203F20202020300008F8F800F8F8080003
:104EB000203F003F003F200008F830C00008F808FD
:104EC000203F200007183F00E01008080810E0000D
:104ED0000F10202020100F0008F808080808F00024
:104EE000203F210101010000E01008080810E00047
:104EF0000F18242438504F0008F8888888887000DC
:104F0000203F2000030C302000708808080838007B
:104F10000038202121221C00180808F80808180071
:104F20000000203F2000000008F808000008F808F2
:104F3000001F202020201F000878880000C83808A3
:104F4000000007380E010000F80800F80008F8001B
:104F5000033C0700073C03000818688080681808B5
:104F600020302C03032C30200838C800C838080033
:104F70000000203F2000000010080808C838080082
:104F80002038262120201800000000FE0202020026
:104F90000000007F40404000000C30C000000000D6
:104FA000000000010638C00000020202FE000000FE
:104FB000004040407F0000000000040202020400A4
:104FC00000000000000000000000000000000000E1
:104FD00080808080808080800002020400000000C9
:104FE00000000000000000000000808080800000C1
:104FF0000019242222223F2008F8008080000000AF
:10500000003F112020110E00000000808080000071
:10501000000E112020201100000000808088F80080
:10502000000E112020103F200000808080800000B2
:10503000001F222222221300008080F08888881816
:105040000020203F20200000000080808080800021
:10505000006B94949493600008F8008080800000B6
:10506000203F210000203F20008098980000000091
:105070000020203F202000000000008098980000C1
:1050800000C08080807F000008F8000080808000E1
:10509000203F24022D302000000808F80000000006
:1050A0000020203F202000008080808080808000C1
:1050B000203F20003F20003F808000808080000053
:1050C000203F210000203F200000808080800000E1
:1050D000001F202020201F00808000808000000012
:1050E00080FFA12020110E00000000808080800041
:1050F000000E112020A0FF80808080008080800032
:1051000020203F212000010000008080808080005E
:105110000033242424241900008080E080800000D3
:105120000000001F20200000808000000080800020
:10513000001F202020103F20808080000080808081
:1051400000010E3008060100808000800080808011
:105150000F300C030C300F00008080008080800036
:105160000020312E0E312000808080000080808061
:1051700080818E7018060100008080808080800011
:105180000021302C2221300000000000807C02022F
:1051900000000000003F404000000000FF00000051
:1051A00000000000FF0000000002027C8000000000
:1051B0000040403F0000000000060101020204041C
:1051C0000000000000000000E8510008000000207E
:1051D000201500006C010008C859000820150020A7
:1051E00048070000D0010008023D00010324140517
:1051F000287038E80300006D6D3200494E49542094
:1052000053554343455353006E6F726D616C006597
:105210006E656D790049696E6974205375636365C5
:10522000737300757073746167654040078A02008C
:1052300000840374110B03290001A4212C213C21BB
:105240000412648C12C80443BC0208700500A24A10
:105250000428400802030406070809B213F01001ED
:1052600022FF050213F0FA130F040122FF050211B9
:105270000FF010094040405F5555557504125F0C02
:10528000011121000C11200F094989790909090F21
:10529000201F200800FE02424ACA4A0300041142AD
:1052A00002FE20040E12FF40504C4340404F50502D
:1052B0005C40FF7213F8880122FF050613F8921371
:1052C0001F0801227F2003109F80E23380820104A7
:1052D0000914E2A2928A86828080D5040416408056
:1052E0007FF0100A2424A4FEA3220022CCAA0512D7
:1052F0003E2407080601FF00013EF80604FF0202F3
:105300000258357C539008C3F20840000F1404443F
:10531000827F01808040432C10284681A0140630F3
:105320007090988F02080517C8F83010990117C2BD
:105330001542080B147888ACF4F4D454040CFC0225
:1053400020040806050100041511303F410409142A
:1053500068A8ECF4DC5C4C4024000C131E19090412
:1053600006030103040818A0F40DE85CD6F01060F1
:1053700060E6A6B030200104101302110F010312E1
:105380001F100807000F1020209F000714C0C0C086
:10539000FFFF601D2562000A12080C0701030206C8
:1053A0000C1880000E1380C0002CD85056BA6C4EDA
:1053B0004B503060100904020222223F0F01010D00
:1053C00013F4030C0D1290884E5AC4F0A8ACBBA481
:1053D000E0C097031D98030007133F2A2A2B3B08C0
:1053E0003E15DD040913D85080A0E070FEC01F1FD9
:1053F0000405AC030408140E04070300030C400466
:105400000A140000889898F8F8D8C8803809080865
:10541000040405040707850913C5080A1320A0BC66
:10542000D0D07C56584860040C130103100A0622A1
:105430003F02050D1901000C1364E494DCC4C0FCA8
:10544000D4586C6481000C1311101F03001F19093C
:1054500005010680040B14406020A0D0F33B28888F
:10546000487F040D140014151A25331F0102040C83
:105470000843040B13984A7EA828BC2725E4E0BF04
:105480000C0B12151C15121F072A22207FC2040CB8
:105490000D12006060E0FEB28050D078D848010460
:1054A000040E12040203011F00020B0D1211180753
:1054B000000C0C1280600C0880B0E87C6EF848018B
:1054C000051F00073F0304071102011711313F3F79
:1054D0001C044040423B040C0912FC2424262524D1
:1054E000243C61054007201F20405F490106105FF2
:1054F0003D10084424147F942400060C0411142445
:105500004480050C0C13808884424529111109053B
:1055100003DB04100840484848C8487F040212488A
:10552000BF4C0710088640300F02050C044F0204E0
:10553000184005DD0E06FD81040221F8356004FFE8
:10554000FE0201FD220682FF1B0E1603C405600445
:105550001F1F0401011040711B0E221FFF07FD28B1
:105560000602223FF52FF80801063101FDDA03316A
:1055700001040617C8C88808FC0B4FFFFF89071DE8
:105580008C070110C011155005607060402601178E
:105590004042800101104000091980818386DCE8C7
:1055A000C0804070047F3F08010D107D046101063A
:1055B000183F413EF8840831010D1120072DA00845
:1055C00008041AF8F8100175A6F94046E4BD08046D
:1055D000160F0F009D3140520101FD240360051F8D
:1055E00079E1811D0E15811C0A1C07103F3F180C24
:1055F0000C26060D131F060C0C150103070E1C18B4
:105600003030307C7F20071C0820C040407C4C405C
:10561000C7060D1440073C0418F06028060D180159
:1056200003200500020C38070D106104100501F17C
:10563000E121010C0416E1F121BE060C0B1301015E
:10564000E1FF0105197161015F097BFF7F630D14A3
:10565000DC033404300C0705FC0630303F402021C9
:10566000044E0ECC0A0C09520F3F2020203F381068
:1056700000048963FF08E800046B7F889B0C051B0E
:1056800004060604BB0B0C051080E07C1F240504F7
:105690000618030E3860C07B2D79031C06202010ED
:1056A000180CE1080D18990B29030C04181C381864
:1056B0009E092F18703B08FF0438A10A3DD2060C42
:1056C0000518C0703C187404100A607C3C04848483
:1056D00085858401EE85400421150C0A1387C5C415
:1056E000840424141E0EFE07A2200105108020064B
:1056F00024242221211B0F1530389F078DCB0A0C43
:10570000043130703F00051C04F0F0F01E03400A25
:1057100030B0B0B030303C3C3C09111146F00D3097
:105720000D8081818183B3B3B3FFFFFFB3015109C2
:1057300011183D62055C1D317131311919FDFFF7FA
:10574000333331B1F1B131313337FFFDFD19393127
:10575000317130DF081C0B60606077373738181EF6
:105760000FC107AC08080C1C1B3B33706A0A4005CC
:10577000F8F8F81801A10AAD600443FF8601A10AF8
:1057800089381C08F171110101F1F123043C061163
:1057900039F9E1412D045F71F10D0A4F0E0F360802
:1057A00070043F3F30011C043C3E1E9B037E076E8D
:1057B0000481760211D87F3DA205CC0E40C3E3637D
:1057C000733F1F1F3B3373E363CE051010C0C0C788
:1057D0000706C6C7C6060606367EF6E6076C050649
:1057E0000667F78C0A28040C1E0F9B920F80180482
:1057F000383C1CD96404070F061E26708449A03B60
:10580000C0E0EE7AFC0A22380111F83108A0084005
:1058100060E0C183070680100680C0F07C1F201A5C
:1058200002E5100BCCE0E06061637772303030212C
:10583000D32DFF042D0204DF7F7F1A07C11042FC25
:105840006F5D850653FCFC093D8E0921CE35813004
:1058500005C60001C10143FFFF084DEE0410051C01
:105860001C0C0E9F32030E2007010F3FF8E08093BF
:105870001DB00B7D1F0D2F703F7D06100420707032
:10588000E42C0D1C0C0F07070F0C1C3838707057D8
:10589000051C071010FEFE909041031D29030E11F8
:1058A000FC000D440706427F7F0100B70E127F0700
:1058B0000E1C07C0E07058464248090F145060C0E3
:1058C00005537E62010E137E76040C0E118C980037
:1058D0000CEC2C2CFE2C2C2CEC0CDC0C0C0E123FAB
:1058E0003F20514945435F41474549487D0D2007C9
:1058F000084848F8484E0501121F0C0E11603F0081
:1059000084444D5D3525554D44409F0C1E085B0871
:105910001C05C83820A0FD030E12FE5F0D0C0C13F1
:10592000603019070F180001064040050F31370C91
:10593000081010109092969090BF07354014050102
:1059400001C030800C05167F7F4060C2064EFEBF4E
:10595000080D139E0B2101427F070650608009FF4E
:105960000009FD001C084046CC08C0603C3C0A0A07
:10597000147C81040C12007FB09841472D31396DA1
:1059800043400C0E14005C5CD4D4DCF4F4DCD4D4BE
:10599000D45C2113337F5A0102157F600D1E540C15
:1059A000032D3333315E5867121ED04C141E1C0079
:1059B00014FFA406940A1D02146D061400070002C9
:0859C0000406080000000000CD
:0400000508000131BD
:00000001FF
